{
  "transactions": [
    {
      "hash": "0xd38812de7916cfa597194b0f44bb6beb68321025e47a82fb6e25055dc0772c34",
      "transactionType": "CALL",
      "contractName": null,
      "contractAddress": "0x3c77a2c93ce57407949b51d81420148458facf5c",
      "function": "mintNft(string)",
      "arguments": [
        "ipfs://bafybeihs6njua4n6ikobowx7p7z6ahy7spy2z7refzp2vv7vcq4wyfkk5m/?filename=gf1.json"
      ],
      "transaction": {
        "from": "0x872989f7fcd4048aca370161989d3904e37a3cb3",
        "to": "0x3c77a2c93ce57407949b51d81420148458facf5c",
        "gas": "0x3da5d",
        "value": "0x0",
        "input": "0xda86f4a900000000000000000000000000000000000000000000000000000000000000200000000000000000000000000000000000000000000000000000000000000055697066733a2f2f626166796265696873366e6a7561346e36696b6f626f77783770377a3661687937737079327a377265667a7032767637766371347779666b6b356d2f3f66696c656e616d653d6766312e6a736f6e0000000000000000000000",
        "nonce": "0x9",
        "chainId": "0xaa36a7"
      },
      "additionalContracts": [],
      "isFixedGasLimit": false
    }
  ],
  "receipts": [
    {
      "status": "0x1",
      "cumulativeGasUsed": "0x9d2169",
      "logs": [
        {
          "address": "0x3c77a2c93ce57407949b51d81420148458facf5c",
          "topics": [
            "0xddf252ad1be2c89b69c2b068fc378daa952ba7f163c4a11628f55a4df523b3ef",
            "0x0000000000000000000000000000000000000000000000000000000000000000",
            "0x000000000000000000000000872989f7fcd4048aca370161989d3904e37a3cb3",
            "0x0000000000000000000000000000000000000000000000000000000000000000"
          ],
          "data": "0x",
          "blockHash": "0xecb7b26091eaefc5e6349ab4ab158a0f7a7a926a4d3091fbb0ad739fe42a9b5b",
          "blockNumber": "0x993081",
          "blockTimestamp": "0x696716c4",
          "transactionHash": "0xd38812de7916cfa597194b0f44bb6beb68321025e47a82fb6e25055dc0772c34",
          "transactionIndex": "0x34",
          "logIndex": "0x80",
          "removed": false
        }
      ],
      "logsBloom": "0x00000000000000000000000000000000000000000000000000200000000000000000000000000000000000000000000000000000000000000000000000000000000000000000000000000008000000000000000000000000000040000000000000040000020000000000000000000800000000000000000000000010000000000000000000000000000000000000000000000000000000000000000001000000000000000000000000000000000000000000000000000000000000000000000000000002000000040000000000000000000000000000000000000000000020000000000000000000000000000000000000000000000000000000000000000000",
      "type": "0x2",
      "transactionHash": "0xd38812de7916cfa597194b0f44bb6beb68321025e47a82fb6e25055dc0772c34",
      "transactionIndex": "0x34",
      "blockHash": "0xecb7b26091eaefc5e6349ab4ab158a0f7a7a926a4d3091fbb0ad739fe42a9b5b",
      "blockNumber": "0x993081",
      "gasUsed": "0x2ca1d",
      "effectiveGasPrice": "0x42342c48",
      "from": "0x872989f7fcd4048aca370161989d3904e37a3cb3",
      "to": "0x3c77a2c93ce57407949b51d81420148458facf5c",
      "contractAddress": null
    }
  ],
  "libraries": [],
  "pending": [],
  "returns": {},
  "timestamp": 1768363716,
  "chain": 11155111,
  "commit": "4d0bd0f"
}